{
  "contractName": "EventTest",
  "abi": [
    {
      "constant": true,
      "inputs": [],
      "name": "myVar",
      "outputs": [
        {
          "name": "",
          "type": "uint256"
        }
      ],
      "payable": false,
      "stateMutability": "view",
      "type": "function",
      "signature": "0xc6b91540"
    },
    {
      "inputs": [],
      "payable": false,
      "stateMutability": "nonpayable",
      "type": "constructor",
      "signature": "constructor"
    },
    {
      "anonymous": false,
      "inputs": [
        {
          "indexed": true,
          "name": "dateModified",
          "type": "uint256"
        },
        {
          "indexed": false,
          "name": "newValue",
          "type": "uint256"
        }
      ],
      "name": "MyEvent",
      "type": "event",
      "signature": "0x06208c2a7c81ce0338f4e7c431f49476c450bad6ce52ef2b4e186db4a1fbcaf4"
    },
    {
      "constant": false,
      "inputs": [
        {
          "name": "newValue",
          "type": "uint256"
        }
      ],
      "name": "changeValue",
      "outputs": [],
      "payable": false,
      "stateMutability": "nonpayable",
      "type": "function",
      "signature": "0xf965e32e"
    }
  ],
  "bytecode": "0x608060405234801561001057600080fd5b50610121806100206000396000f3fe6080604052600436106049576000357c0100000000000000000000000000000000000000000000000000000000900463ffffffff168063c6b9154014604e578063f965e32e146076575b600080fd5b348015605957600080fd5b50606060ad565b6040518082815260200191505060405180910390f35b348015608157600080fd5b5060ab60048036036020811015609657600080fd5b810190808035906020019092919050505060b3565b005b60005481565b80600081905550427f06208c2a7c81ce0338f4e7c431f49476c450bad6ce52ef2b4e186db4a1fbcaf4826040518082815260200191505060405180910390a25056fea165627a7a72305820748dce41d199a64385f02cd7a79970f50bc7af5f40387a4f25da90aa098d89ee0029",
  "source": "pragma solidity ^0.5.0;\n\ncontract EventTest {\n\n    constructor() public {\n\n    }\n\n    uint public myVar;\n\n    event MyEvent(uint indexed dateModified, uint newValue);\n\n    function changeValue(uint newValue) public {\n\n      myVar = newValue;\n\n      emit MyEvent(now, newValue);\n    }\n}\n",
  "sourcePath": "/opt/APP/truffle/EventTest/contracts/EventTest.sol",
  "compiler": {
    "name": "solc",
    "version": "0.5.0+commit.1d4f565a.Emscripten.clang"
  },
  "schemaVersion": "3.0.1",
  "updatedAt": "2019-02-01T12:47:08.347Z",
  "devdoc": {
    "methods": {}
  },
  "userdoc": {
    "methods": {}
  }
}