{
  "contractName": "EUComission",
  "abi": [
    {
      "constant": false,
      "inputs": [
        {
          "name": "hashVIN",
          "type": "string"
        },
        {
          "name": "hashData",
          "type": "string"
        }
      ],
      "name": "logData",
      "outputs": [],
      "payable": false,
      "stateMutability": "nonpayable",
      "type": "function",
      "signature": "0xae54a430"
    },
    {
      "constant": true,
      "inputs": [
        {
          "name": "index",
          "type": "uint256"
        }
      ],
      "name": "getData",
      "outputs": [
        {
          "name": "hashVIN",
          "type": "string"
        },
        {
          "name": "hashData",
          "type": "string"
        },
        {
          "name": "length",
          "type": "uint256"
        }
      ],
      "payable": false,
      "stateMutability": "view",
      "type": "function",
      "signature": "0x0178fe3f"
    }
  ],
  "bytecode": "0x608060405234801561001057600080fd5b50610681806100206000396000f3fe60806040526004361061004c576000357c0100000000000000000000000000000000000000000000000000000000900463ffffffff1680630178fe3f14610051578063ae54a43014610178575b600080fd5b34801561005d57600080fd5b5061008a6004803603602081101561007457600080fd5b81019080803590602001909291905050506102d7565b604051808060200180602001848152602001838103835286818151815260200191508051906020019080838360005b838110156100d45780820151818401526020810190506100b9565b50505050905090810190601f1680156101015780820380516001836020036101000a031916815260200191505b50838103825285818151815260200191508051906020019080838360005b8381101561013a57808201518184015260208101905061011f565b50505050905090810190601f1680156101675780820380516001836020036101000a031916815260200191505b509550505050505060405180910390f35b34801561018457600080fd5b506102d56004803603604081101561019b57600080fd5b81019080803590602001906401000000008111156101b857600080fd5b8201836020820111156101ca57600080fd5b803590602001918460018302840111640100000000831117156101ec57600080fd5b91908080601f016020809104026020016040519081016040528093929190818152602001838380828437600081840152601f19601f8201169050808301925050505050505091929192908035906020019064010000000081111561024f57600080fd5b82018360208201111561026157600080fd5b8035906020019184600183028401116401000000008311171561028357600080fd5b91908080601f016020809104026020016040519081016040528093929190818152602001838380828437600081840152601f19601f820116905080830192505050505050509192919290505050610466565b005b606080600080848154811015156102ea57fe5b906000526020600020906002020160000160008581548110151561030a57fe5b9060005260206000209060020201600101600080549050828054600181600116156101000203166002900480601f0160208091040260200160405190810160405280929190818152602001828054600181600116156101000203166002900480156103b65780601f1061038b576101008083540402835291602001916103b6565b820191906000526020600020905b81548152906001019060200180831161039957829003601f168201915b50505050509250818054600181600116156101000203166002900480601f0160208091040260200160405190810160405280929190818152602001828054600181600116156101000203166002900480156104525780601f1061042757610100808354040283529160200191610452565b820191906000526020600020905b81548152906001019060200180831161043557829003601f168201915b505050505091509250925092509193909250565b600080805490509050600160008181805490500191508161048791906104f7565b508260008281548110151561049857fe5b906000526020600020906002020160000190805190602001906104bc929190610529565b50816000828154811015156104cd57fe5b906000526020600020906002020160010190805190602001906104f1929190610529565b50505050565b8154818355818111156105245760020281600202836000526020600020918201910161052391906105a9565b5b505050565b828054600181600116156101000203166002900490600052602060002090601f016020900481019282601f1061056a57805160ff1916838001178555610598565b82800160010185558215610598579182015b8281111561059757825182559160200191906001019061057c565b5b5090506105a591906105e8565b5090565b6105e591905b808211156105e157600080820160006105c8919061060d565b6001820160006105d8919061060d565b506002016105af565b5090565b90565b61060a91905b808211156106065760008160009055506001016105ee565b5090565b90565b50805460018160011615610100020316600290046000825580601f106106335750610652565b601f01602090049060005260206000209081019061065191906105e8565b5b5056fea165627a7a723058204e8478f8de4b97909e8e86386771c4565abf193f8617bd526e3043747e52ee670029",
  "source": "pragma solidity ^0.5.0;\n\n\n// This is just a simple example of a coin-like contract.\n// It is not standards compatible and cannot be expected to talk to other\n// coin/token contracts. If you want to create a standards-compliant\n// token, see: https://github.com/ConsenSys/Tokens. Cheers!\n\ncontract EUComission {\n\n\tstruct hashLog {\n       string hashVIN;\n       string hashData;\n\t}\n\n\thashLog[] logs;\n\n\tfunction logData(string memory hashVIN, string memory hashData) public {\n\t\tuint index = logs.length;\n\t\tlogs.length+=1;\n\t\tlogs[index].hashVIN = hashVIN;\n\t\tlogs[index].hashData = hashData;\n\t}\n\n\tfunction getData(uint index) public view returns (string memory hashVIN, string memory hashData, uint length) {\n\t\treturn (logs[index].hashVIN, logs[index].hashData, logs.length);\n\t}\n}\n",
  "sourcePath": "/opt/APP/truffle/EUComission/contracts/EUComission.sol",
  "compiler": {
    "name": "solc",
    "version": "0.5.0+commit.1d4f565a.Emscripten.clang"
  },
  "schemaVersion": "3.0.1",
  "updatedAt": "2019-08-15T12:34:54.778Z",
  "devdoc": {
    "methods": {}
  },
  "userdoc": {
    "methods": {}
  }
}